0170816SDT1OPETP0000010005000300000003                                                                                                                                                                                                                                                                                                                                                                                                              0001
1                                 PEPSICO DO BRASIL LTDA                       PEPSICO DO BRASIL LTDA                       CH 000202     290616290616   0000000009429200000000094292                      0MINI MERCADO AMERICO DA ROCHA 1497 L ME      CGC00550322000151           RUA AMERICO ROCHA 1497 COMPLE C              21555300RIO DE JANEIRO      RJ010060224PEPSICO DO BRASIL LTDA                       00000088570240899EBRY02689SQN 0002
1                                 PEPSICO DO BRASIL LTDA                       PEPSICO DO BRASIL LTDA                       CH 000263     180616180616   0000000015054900000000150549                      0ANTONIO MARQUES DIAS                         CPF   10377450782           RUA ANDRADE ARAUJO 1150 OSWALDO CRUZ         21341312RIO DE JANEIRO      RJ010060225PEPSICO DO BRASIL LTDA                       00000104250240900EBRY02690BJU 0003
1                                 BANCO BRADESCO S/A                           BANCO BRADESCO S/A                           CCB003559119  190214260716   0000000176193900000001761939                      0BRUNO DE ARAUJO SANTANA                      CPF   05455031759           RUA CANDIDO BENICIO 2610 SACA 03             22733001RIO DE JANEIRO      RJ010060226BANCO BRADESCO S/A                           00000173630240907EBRY02697JXW 0004
917081600018000000000002006780                                                                                                                                                                                                                                                                                                                                                                                                                      0005
